:100000000C94D1000C94F9000C94F9000C94F900B4
:100010000C94F9000C94F9000C94F9000C94F9007C
:100020000C94F9000C94F9000C94F9000C94F9006C
:100030000C94F9000C94F9000C94F9000C94F9005C
:100040000C94D7050C94F9000C944A040C942404E5
:100050000C94F9000C94F9000C94F9000C94F9003C
:100060000C94F9000C94F900496E697469616C692B
:1000700073696E672E2E2E002056322E3000436F8D
:100080006E74726F6C6C657200497272696761742C
:10009000696F6E20004E6F207265706C7900496E3A
:1000A00076616C696420436F6D6D616E6400496EAA
:1000B00076616C696420416464726573730043689F
:1000C00065636B73756D206E6F74206D617463680A
:1000D000004D736720546F6F204C6F6E670052782D
:1000E0002074696D6564206F757400456E61626C83
:1000F00065204C696E65204C6F770000FB00EB00BB
:10010000FB00DE00D100BE00AE0007009E0095009F
:1001100030003A000D0A002A4C6173742065727237
:100120006F72206D7367002A526573657420616C6D
:100130006C002A4D6F7265004552524F5220002AC2
:10014000486F6D65200000000000240027002A0091
:1001500000000000250028002B0000000000230004
:100160002600290004040404040404040202020218
:10017000020203030303030301020408102040806A
:1001800001020408102001020408102000000008E9
:10019000000201000003040700000000000000004E
:1001A000380A11241FBECFEFD8E0DEBFCDBF11E06B
:1001B000A0E0B1E0E0EDFFE102C005900D92A635B0
:1001C000B107D9F722E0A6E5B1E001C01D92A8363B
:1001D000B207E1F710E0C1EDD0E004C02197FE01C5
:1001E0000E949C0EC03DD107C9F70E94B90A0C9429
:1001F000E60F0C940000CF92DF92EF92FF920F93E4
:100200001F93CF93DF936C017A018B01C0E0D0E0A4
:10021000CE15DF0589F0D8016D918D01D601ED91E4
:10022000FC910190F081E02DC6010995892B11F414
:100230007E0102C02196ECCFC701DF91CF911F91C3
:100240000F91FF90EF90DF90CF90089582E691E0BC
:100250000E94320321E0892B09F420E0822F0895C7
:10026000EF92FF920F931F93CF93DF93EC016230D5
:1002700018F08F8588608F876B8B1C8A80E48D8B4C
:1002800080E18E8B80E58F8B61E08C810E94EB0496
:100290008D818F3F19F061E00E94EB0461E08E8157
:1002A0000E94EB047E0187E0E80EF11C00E010E004
:1002B0008F8584FD03C084E090E002C088E090E078
:1002C000081719074CF461E0F70181917F010E9442
:1002D000EB040F5F1F4FECCF8BE39DE00197F1F72D
:1002E00060E08C810E94A50460E08E810E94A504DC
:1002F0008D818F3F19F060E00E94A5046F8564FD39
:100300001DC063E0CE010E9421060BE416E4C80183
:100310000197F1F763E0CE010E942106C801019721
:10032000F1F763E0CE010E94210683E592E0019798
:10033000F1F762E0CE010E94210616C06062CE0194
:100340000E94A7068BE496E40197F1F76F8560623F
:10035000CE010E94A70683E592E00197F1F76F8531
:100360006062CE010E94A7066F856062CE010E9486
:10037000A70684E0888B6CE0CE010E94A706CE0120
:100380000E94AA0682E0898B66E0CE01DF91CF91C0
:100390001F910F91FF90EF900C94A706CF92DF92E0
:1003A000EF92FF920F931F93CF93DF93082F162F97
:1003B000D42F0E9461056B017C0128EBC20E2BE05B
:1003C000D21EE11CF11C809107020E947C04892B43
:1003D00049F40E946105C616D706E806F90698F7A3
:1003E00081E074C061E0809107020E94EB0460E04C
:1003F000809107020E94A50465E070E080E090E033
:100400000E942705C12FCD0FC00F8091010290914E
:100410000202DC01ED91FC910190F081E02D6091F0
:10042000080209958091010290910202DC01ED9190
:10043000FC910190F081E02D602F099580910102DF
:1004400090910202DC01ED91FC910190F081E02D90
:10045000612F09958091010290910202DC01ED91DA
:10046000FC910190F081E02D6D2F099580910102A2
:1004700090910202DC01ED91FC910190F081E02D60
:100480006C2F09958091010290910202DC01ED919F
:10049000FC910190F081E02D609109020995809115
:1004A000010290910202DC01ED91FC910680F7813E
:1004B000E02D099565E070E080E090E00E9427055E
:1004C00060E0809107020E94EB0480E0DF91CF9111
:1004D0001F910F91FF90EF90DF90CF900895CF93F1
:1004E000DF93C82F47E70E94CE01D82F81111EC08D
:1004F0000E946105AB01BC01405F584D6F4F7F4FBB
:1005000080910A02C81728F08FEF91E00E94B2068E
:100510000DC0E091FF01F091000284E0C89FE00D62
:10052000F11D112440835183628373838D2FDF91EA
:10053000CF9108950E94CF0FBC018091010290914C
:1005400002020C94D607643008F063E090911E021A
:10055000691710F06FEF690FE62FF0E0E55FFD4FD0
:100560009489682F690F60688BE092E00C94A7066D
:100570004F925F926F927F92EF92FF920F931F9331
:10058000CF93DF93CDB7DEB7A1970FB6F894DEBF58
:100590000FBECDBF7C01FA01CB0119A2223008F4B5
:1005A0002AE08E010F5D1F4F422E512C612C712CC1
:1005B000BF01A30192010E947A0EF901CA01015004
:1005C00011096A3014F4605D01C0695CD8016C9354
:1005D000232B242B252B61F7B801C7010E94D607D6
:1005E000A1960FB6F894DEBF0FBECDBFDF91CF91BD
:1005F0001F910F91FF90EF907F906F905F904F90C1
:100600000895FC01538D448D252F30E0842F90E018
:10061000821B930B541710F0CF96089501970895FD
:10062000FC01918D828D981761F0828DDF01A80FFA
:10063000B11D5D968C91928D9F5F9F73928F90E01C
:1006400008958FEF9FEF0895FC01918D828D98178B
:1006500031F0828DE80FF11D858D90E008958FEFC8
:100660009FEF0895FC01918D228D892F90E0805C91
:100670009F4F821B91098F7399270895FC01848DE8
:10068000DF01A80FB11DA35ABF4F2C91848D90E0BC
:1006900001968F739927848FA689B7892C93A08997
:1006A000B1898C9180648C93938D848D981306C04E
:1006B0000288F389E02D80818F7D80830895EF92F9
:1006C000FF920F931F93CF93DF93EC0181E0888F0C
:1006D0009B8D8C8D981305C0E889F989808185FDF3
:1006E00024C0F62E0B8D10E00F5F1F4F0F731127E4
:1006F000E02E8C8DE8120CC00FB607FCFACFE8890B
:10070000F989808185FFF5CFCE010E943E03F1CFAC
:100710008B8DFE01E80FF11DE35AFF4FF0820B8F26
:10072000EA89FB898081806207C0EE89FF89608346
:10073000E889F98980818064808381E090E0DF919D
:10074000CF911F910F91FF90EF900895CF93DF937A
:10075000EC01888D8823C9F0EA89FB89808185FDB9
:1007600005C0A889B9898C9186FD0FC00FB607FC1A
:10077000F5CF808185FFF2CFA889B9898C9185FF5B
:10078000EDCFCE010E943E03E7CFDF91CF910895D8
:1007900080E090E0892B29F00E94260181110C94C1
:1007A00000000895833081F028F4813099F0823080
:1007B000A1F008958730A9F08830B9F08430D1F4E1
:1007C000809180008F7D03C0809180008F7780931F
:1007D0008000089584B58F7702C084B58F7D84BD75
:1007E00008958091B0008F7703C08091B0008F7D15
:1007F0008093B00008953FB7F89480916002909183
:100800006102A0916202B091630226B5A89B05C067
:100810002F3F19F00196A11DB11D3FBFBA2FA92F7F
:10082000982F8827820F911DA11DB11DBC01CD01FC
:1008300042E0660F771F881F991F4A95D1F70895E8
:10084000089580E090E008951F920F920FB60F92E6
:1008500011242F933F934F935F936F937F938F93C5
:100860009F93AF93BF93EF93FF9382E691E00E9433
:100870003E03FF91EF91BF91AF919F918F917F9137
:100880006F915F914F913F912F910F900FBE0F90FD
:100890001F9018951F920F920FB60F9211242F934D
:1008A0008F939F93EF93FF93E0917201F091730107
:1008B0008081E0917801F091790182FD12C09081F0
:1008C00080917B018F5F8F7320917C01821751F0A3
:1008D000E0917B01F0E0EE59FE4F958F80937B0114
:1008E00001C08081FF91EF919F918F912F910F9087
:1008F0000FBE0F901F901895CF93DF93282F30E0F5
:10090000F901E457FE4F8491F901E858FE4FD49164
:10091000F901EC59FE4FC491CC2391F081110E9452
:10092000D203EC2FF0E0EE0FFF1FE65AFE4FA59129
:10093000B491EC91ED2381E090E021F480E002C0DD
:1009400080E090E0DF91CF9108951F93CF93DF93E4
:10095000282F30E0F901E457FE4F8491F901E8585F
:10096000FE4FD491F901EC59FE4FC491CC23C9F04C
:10097000162F81110E94D203EC2FF0E0EE0FFF1F23
:10098000E05BFE4FA591B4918FB7F894111105C0AB
:100990009C91ED2FE095E92302C0EC91ED2BEC93B7
:1009A0008FBFDF91CF911F910895CF93DF93EC011B
:1009B00060E08E810E94A50461E08E810E94A50402
:1009C00060E08E810E94A5048BE891E00197F1F729
:1009D000DF91CF910895CF93DF9390E0FC01E85829
:1009E000FE4F2491FC01EC59FE4F8491882361F164
:1009F00090E0880F991FFC01EA5BFE4FC591D491EE
:100A0000FC01E05BFE4FA591B491611109C09FB755
:100A1000F8948881209582238883EC912E230BC043
:100A2000623061F49FB7F8943881822F80958323D8
:100A30008883EC912E2B2C939FBF06C08FB7F89420
:100A4000E8812E2B28838FBFDF91CF9108958F925D
:100A50009F92AF92BF92CF92DF92EF92FF926B0183
:100A60007C010E94FB034B015C01C114D104E10431
:100A7000F104F1F00E94FB03DC01CB018819990914
:100A8000AA09BB09883E9340A105B10570F321E096
:100A9000C21AD108E108F10888EE880E83E0981E9A
:100AA000A11CB11CC114D104E104F10419F7DDCF7C
:100AB000FF90EF90DF90CF90BF90AF909F908F907E
:100AC00008952FB7F89460915C0270915D02809157
:100AD0005E0290915F022FBF08958F929F92AF9216
:100AE000BF92CF92DF92EF92FF92CF93DF9300D02D
:100AF00000D0CDB7DEB70E9461054B015C0120E656
:100B00003AEE40E050E00E947A0ECA01B9012CE3AF
:100B100030E040E050E00E947A0E6B017C01C5019C
:100B2000B40120E83EEE46E350E00E947A0EDA017E
:100B3000C9014AE0BE016F5F7F4F0E94450EBE01B2
:100B40006F5F7F4F80E592E00E94DF0F62E171E00E
:100B500080E592E00E94330E8AE0C816D104E104D9
:100B6000F10430F460E171E080E592E00E94330E20
:100B70004AE0BE016F5F7F4FC6010E94450EBE0175
:100B80006F5F7F4F80E592E00E94D40F80E592E096
:100B90000F900F900F900F90DF91CF91FF90EF90FB
:100BA000DF90CF90BF90AF909F908F9008951F924D
:100BB0000F920FB60F9211242F933F938F939F9311
:100BC000AF93BF9380915C0290915D02A0915E0211
:100BD000B0915F0230915B0223E0230F2D3720F4A8
:100BE0000196A11DB11D05C026E8230F0296A11D87
:100BF000B11D20935B0280935C0290935D02A093F1
:100C00005E02B0935F028091600290916102A091B8
:100C10006202B09163020196A11DB11D8093600232
:100C200090936102A0936202B0936302BF91AF916F
:100C30009F918F913F912F910F900FBE0F901F901A
:100C40001895CF92DF92EF92FF920F931F93CF935D
:100C5000DF937C016C0187E0C80ED11CC0E0D0E0BE
:100C6000062F10E0B8010C2E02C0759567950A9406
:100C7000E2F76170F60181916F010E94A50421964F
:100C8000C430D10579F7C701DF91CF911F910F9142
:100C9000FF90EF90DF90CF900C94D504CF92DF922D
:100CA000EF92FF920F931F93CF93DF93EC01F62EF9
:100CB000642F8C810E94A5048D818F3F19F060E024
:100CC0000E94A5048F850F2D10E084FF25C06E01C2
:100CD00087E0C80ED11CE12CF12CB8010E2C02C00B
:100CE000759567950A94E2F76170F60181916F013D
:100CF0000E94A504FFEFEF1AFF0A88E0E816F1044E
:100D000061F7CE01DF91CF911F910F91FF90EF908E
:100D1000DF90CF900C94D504B80184E07595679569
:100D20008A95E1F7CE010E9421066F2DCE01DF9159
:100D3000CF911F910F91FF90EF90DF90CF900C9487
:100D4000210641E00E944E0681E090E0089540E0D7
:100D50000C944E0661E00E94A7068BE39FE1019789
:100D6000F1F70895DC0190E01B968C911B97981782
:100D700070F4ED91FC91119784E0989FE00DF11DC6
:100D8000112440835183628373839F5FEDCF089565
:100D9000CF92DF92EF92FF921F93CF93DF93EC01FC
:100DA00088810E947C04892B09F4ABC01981123020
:100DB000B9F028F4112349F0113069F0BAC01330AA
:100DC00021F1143009F460C0B4C08E858111B1C026
:100DD00081E08E872BC08E85811128C01E878FC031
:100DE0008E858823A9F00E9461052A853B85CA80EB
:100DF000DB80EC80FD80C20ED31EE11CF11CC61608
:100E0000D706E806F90690F425C08E85811110C03A
:100E100081E08E870E9461056A837B838C839D833A
:100E20000E9461056E837F838887998711E082C065
:100E30000E9461052A853B85CA80DB80EC80FD80AD
:100E4000C20ED31EE11CF11CC616D706E806F90631
:100E500008F06FC00E9461052C853D85CE80DF8043
:100E6000E884F984C20ED31EE11CF11CC616D70615
:100E7000E806F90608F05DC00E9461056E837F8375
:100E80008887998714E056C08E85882351F10E9487
:100E900061052A853B85CA80DB80EC80FD80C20E1F
:100EA000D31EE11CF11CC616D706E806F90608F0A9
:100EB000BDCF0E9461052C853D85CE80DF80E88412
:100EC000F984C20ED31EE11CF11CC616D706E80633
:100ED000F90678F50E9461056E837F83888799877C
:100EE00029C081E08E870E9461056A837B838C83A1
:100EF0009D830E9461056E837F838887998712E0B6
:100F000019C08E85882341F08981813011F08430A9
:100F100019F41E8613E00EC01E860E9461056A83C6
:100F20007B838C839D830E9461056E837F8388878A
:100F3000998710E0812FDF91CF911F91FF90EF9063
:100F4000DF90CF900895CF93DF93EC011E86198236
:100F50000E9461056A837B838C839D830E94610567
:100F60006E837F838887998788EE93E09B878A8743
:100F700084E690E09D878C871882DF91CF91089559
:100F8000CF93DF9300D01F92CDB7DEB764E171E05D
:100F9000CE0101960E943E0ECE0101960E949C0257
:100FA0000F900F900F90DF91CF910895611571050B
:100FB00079F0FB0101900020E9F73197AF01461B62
:100FC000570BDC01ED91FC910280F381E02D099437
:100FD00080E090E00895CF93DF930E946D05EC01CF
:100FE000FC0101900020E9F73197E81BF90B809193
:100FF0006001805F60E08E1B0E94A302BE018BE057
:1010000092E0DF91CF910C94D6070F931F930E942B
:1010100061050091570210915802209159023091B8
:101020005A026017710782079307C0F0DC01CB01F9
:1010300088579C4EAF4FBF4F8093570290935802F2
:10104000A0935902B0935A020E94EB0760915E018F
:1010500080915F011F910F910C94A3021F910F913A
:101060000895CF93DF93CDB7DEB727970FB6F894E7
:10107000DEBF0FBECDBF60E0809160010E94A30281
:101080006FE371E0CE0101960E943E0EBE016F5FDC
:101090007F4F8BE092E00E94D60768E371E0CE01BB
:1010A00001960E943E0EBE016F5F7F4F8BE092E083
:1010B0000E94D6070E94EB0727960FB6F894DEBF72
:1010C0000FBECDBFDF91CF910895CF92DF92EF9207
:1010D000FF920F931F93CF93DF93CDB7DEB72F9778
:1010E0000FB6F894DEBF0FBECDBF109260018BE04B
:1010F00092E00E94AA0680916101813009F473C0D8
:1011000060F0823009F09EC00E94310861E080E00A
:101110000E94A30260E071E08DC0C12CD12C760149
:10112000C3942AE0B701A6018BE092E00E94B802C6
:101130008FEFC81AD80AE80AF80AA8E0CA16D1043C
:10114000E104F10471F7E0910B02F0910C020190BF
:10115000F081E02D61E48BE092E0099561E080E0B0
:101160000E94A30281E080935D01809156018B7FF4
:1011700011F410925D0106E511E087E0F82EF00E03
:101180006801D801ED918D01F0E0E15DFE4F6081D5
:101190008BE092E00E94A106F601908180915601B9
:1011A000981310925D01F012EBCF6AE28BE092E0AF
:1011B0000E94A10661E08BE00E94A30262E371E05D
:1011C000CE0101960E943E0EBE016F5F7F4F8BE005
:1011D00092E00E94D6070E94EB0710925F0181E027
:1011E00080935E012FC06FE371E0CE0101960E94F3
:1011F0003E0EBE016F5F7F4F8BE092E00E94D607EC
:1012000067E271E0CE0101960E943E0EBE016F5F63
:101210007F4F8BE092E00E94D60761E080E00E9461
:10122000A30267E171E0CE0101960E943E0EBE016D
:101230006F5F7F4F8BE092E00E94D60710925F01B4
:1012400010925E0160915E0180915F010E94A30295
:101250002F960FB6F894DEBF0FBECDBFDF91CF91B2
:101260001F910F91FF90EF90DF90CF900895CF9353
:10127000C82F0E946D05BC0180E091E00E94DF0F45
:101280004C2F50E060E070E02AE082E691E00E949E
:10129000B80262E571E082E691E00E94D607EC2F89
:1012A000F0E0EE0FFF1FE450FF4F649170E080E02C
:1012B00091E00E94D40F80E091E00E949C020E9485
:1012C000C00782E080936101CF910C9465088F92F2
:1012D0009F92AF92BF92CF92DF92EF92FF920F93C5
:1012E0001F93CF93DF9300D000D000D0CDB7DEB7EF
:1012F000CE0101966C0186E0D6011D928A95E9F730
:101300008091010290910202DC01ED91FC91008438
:10131000F185E02D0995892B09F497C08091010290
:1013200090910202DC01ED91FC910284F385E02DA5
:10133000099590910802981388C00E9461054B019D
:101340005C01B0E18B0EB7E29B1EA11CB11C8601B3
:1013500086E0F82EFC0C9E8180910902981731F1ED
:101360000E94610586169706A806B906A0F180912D
:10137000010290910202DC01ED91FC910084F18563
:10138000E02D0995892B39F30F5F1F4FF01629F1D6
:101390008091010290910202DC01ED91FC910284A6
:1013A000F385E02D0995F8018083D5CF1A810B8153
:1013B000BC80802F810F8B0D9D81891310C080917F
:1013C0000A02181770F040E050E0BA018FEF91E088
:1013D0000E94B20619C083E012C084E010C085E00C
:1013E0000EC0E091FF01F091000224E0129FE00D99
:1013F000F11D1124108211821282138205C060E057
:1014000070E00E94370921C0173020F060E070E0E2
:1014100086E0F7CFE12EF12C87E7B8120CC005303B
:1014200028F01983B60188E00E943709F701EA5ACB
:10143000FE4F00830AC0F701EA5AFE4F8081081769
:1014400021F01983B60187E0DCCF26960FB6F89419
:10145000DEBF0FBECDBFDF91CF911F910F91FF90E7
:10146000EF90DF90CF90BF90AF909F908F900895B6
:101470000F931F93CF93DF93C2E6D1E01B821A82B2
:1014800088EE93E0A0E0B0E08C839D83AE83BF83C1
:1014900088E391E09983888385EC90E09D878C8731
:1014A00084EC90E09F878E8780EC90E0998B888B0E
:1014B00081EC90E09B8B8A8B82EC90E09D8B8C8BF7
:1014C00086EC90E09F8B8E8B198E1A8E1B8E1C8E55
:1014D000EBE0F2E0138212828AE491E09183808350
:1014E0008CE084838FEF85838BE0868385E0878320
:1014F00084E0808783E0818782E082871386148678
:1015000015861686178661E0CF010E94300181E4BE
:1015100092E00E94A30782E392E00E94A30783E285
:1015200092E00E94A3070FEF11E0F801D383C2837A
:1015300080EB94E0A0E0B0E084839583A683B7833A
:1015400089E080878EE781878AE0828787E08387CA
:101550008CE190E00E94A20EF8019183808340E02C
:1015600050E0BA01C801DF91CF911F910F910C9407
:10157000B206CF93DF93CDB7DEB76E970FB6F89470
:10158000DEBF0FBECDBF789484B5826084BD84B5C4
:10159000816084BD85B5826085BD85B5816085BD6E
:1015A00080916E00816080936E0010928100809126
:1015B00081008260809381008091810081608093AE
:1015C0008100809180008160809380008091B100D3
:1015D00084608093B1008091B00081608093B000FE
:1015E00080917A00846080937A0080917A00826092
:1015F00080937A0080917A00816080937A00809154
:101600007A00806880937A001092C100C090030233
:10161000D0900402E0900502F090060200910102D1
:101620001091020260E079E08DE390E0A70196015D
:101630000E947A0EDA01C9010197A109B109B69594
:10164000A795979587959C01D8015096ED91FC91AF
:10165000519782E08083C114B1EEDB06E104F1040E
:1016600021F02115E0E13E07C0F0D8015096ED9140
:10167000FC915197108260E874E88EE190E0A70138
:1016800096010E947A0EDA01C9010197A109B109F8
:10169000B695A795979587959C01D8011C96ED91D5
:1016A000FC911D9730831E96ED91FC911F9720832E
:1016B00058961C9258975496ED91FC91559776E068
:1016C000F72EF0825296ED91FC91539780818061C4
:1016D00080835296ED91FC9153978081886080833E
:1016E0005296ED91FC915397808180688083529649
:1016F000ED91FC91539780818F7D808360E0809194
:1017000007020E94EB0462E08BE092E00E9430014D
:1017100087E08093410260E00E94EB04F092320285
:1017200060E086E00E94EB0488E08093230260E0A2
:101730000E94EB0423E0209342028CE291E090931C
:101740004C0280934B0290934E0280934D02209363
:10175000330290933D0280933C0290933F0280932A
:101760003E022093240290932E0280932D029093A8
:10177000300280932F0261E08DE00E94EB0460E074
:101780008DE00E94A5048BE092E00E94AA0669E821
:1017900070E0CE0101960E943E0ECE0101960E949D
:1017A0009C02BE016F5F7F4F8BE092E00E94D607E4
:1017B00061E080E00E94A3026EE770E0CE01019636
:1017C0000E943E0ECE0101960E949C02BE016F5FF8
:1017D0007F4F8BE092E00E94D60768E770E0CE0171
:1017E00001960E943E0ECE0101960E949C02BE010F
:1017F0006F5F7F4F8BE092E00E94D6070E94C00788
:1018000060ED77E080E090E00E9427058BE092E0B9
:101810000E94AA0668E670E0CE0101960E943E0E84
:10182000CE0101960E949C02BE016F5F7F4F8BE04C
:1018300092E00E94D6070E94C0070E94C0076091F4
:101840001B02862F826080931B026A608BE092E00D
:101850000E94A706E6E5F1E084E0A7E0FA2EFE0E7E
:101860008193FE12FDCF63E781E60E946F02882319
:1018700021F060E070E00E9437090E9461054B0191
:101880005C01B0E18B0EB7E29B1EA11CB11C11E004
:101890000E94610586169706A806B90678F01123FE
:1018A00069F00E946709E6E5F1E080E091919430EB
:1018B00009F4812FFE12FACF182FEACF0E94650893
:1018C00092E0A92E26E0E22E3BE0B32E47E0942ED4
:1018D00050E0C52E51E0D52E80916101813009F490
:1018E000C2C020F0823009F427C17AC10E940508E5
:1018F00081E492E00E94C8068130A1F480915F01EA
:10190000882329F08B3031F490925F0106C0B092A9
:101910005F0103C0815080935F0161E080915F01AE
:101920000E94A30282E392E00E94C8068130A1F4E3
:1019300080915F01873029F08B3031F410925F0184
:1019400006C0B0925F0103C08F5F80935F0161E0CA
:1019500080915F010E94A30283E292E00E94C80688
:10196000282F813009F03CC180915F018B3019F440
:1019700020936101DEC08730A9F580915D01882345
:1019800031F010915601133011F01F5F01C011E0CA
:10199000612F81E60E946F02882321F060E070E0F1
:1019A0000E94370961E080E00E94A30266E5662E8E
:1019B00061E0762EE12FF0E0E15DFE4F0081F30162
:1019C00011933F01602F8BE092E00E94A106F61078
:1019D000F6CF61E080915F010E94A30281E08093D5
:1019E0005D01FEC0E82FF0E0EA5AFE4F908193308F
:1019F00010F0208302C09F5F908360810E946F027D
:101A0000882321F060E070E00E94370910915F01A7
:101A1000E12FF0E0EA5AFE4FE081F0E0E15DFE4F99
:101A200060818BE092E00E94A10661E0812F0E941C
:101A3000A30281E080935D0190915601892F8B7FF5
:101A400011F410925D0180915D01E6E5F1E02191D4
:101A5000291380E0FE12FBCF80935D0161E0812FAE
:101A60000E94A302BDC081E492E00E94C8068130BA
:101A7000D1F490915F01911107C090915E01911195
:101A800008C080935E0109C0963019F410925F017E
:101A900004C010925E01E0925F0160915E0180914E
:101AA0005F010E94A30282E392E00E94C806813097
:101AB000D1F490915F01911107C080915E01811175
:101AC0000AC0E0925F0109C0963029F410925F01CC
:101AD00080935E0102C010925E0160915E01809170
:101AE0005F010E94A30283E292E00E94C806813057
:101AF00009F076C080915F01811107C080915E017D
:101B0000811115C01092610114C0863081F448E73C
:101B100068E781E60E94CE0198E088E10FB6F8946C
:101B2000A895809360000FBE90936000FFCFA092B5
:101B300061010E94650854C00E940508F6010190E9
:101B40000020E9F731978F0100501140013108F46E
:101B500040C081E492E00E94C8068130C1F48091C7
:101B600060018823A1F089508093600189E0882E6C
:101B70006CE18BE092E00E94A7068A948110F8CF76
:101B80000E94310860E0809160010E94A30282E31C
:101B900092E00E94C8068130E1F480916001282F14
:101BA00030E01127005111092017310794F4875FA5
:101BB0008093600119E068E18BE092E00E94A70643
:101BC0001150C9F70E94310860E0809160010E94C5
:101BD000A30283E292E00E94C806813009F492CF0A
:101BE0000E9467090E9461052B013C0100E010E0A2
:101BF00080E0E091FF01F0910002E00FF11F4081D1
:101C00005181628173814416550666067706D8F0C5
:101C10004115510561057105B1F02AE082E691E0B8
:101C20000E94B80262E571E082E691E00E94D60768
:101C3000E091FF01F0910002E00FF11F108211828C
:101C40001282138281E00C5F1F4F0C31110589F65F
:101C5000882331F0BE016F5F7F4F89E00E94370912
:101C60000E94C80339CEFB01DC010D900020E9F78A
:101C7000119705900D920020E1F70895FB01DC011A
:101C800005900D920020E1F70895BB274A3031F40A
:101C9000992322F4BDE2909581959F4F0C94510EAB
:101CA000BB27FB015527AA27880F991FAA1FA41736
:101CB00010F0A41B83955051B9F7A05DAA3308F02A
:101CC000A95DA193009779F7B111B1931192CB015E
:101CD0000C946A0EDC01FC01672F71917723E1F708
:101CE000329704C07C916D9370836291AE17BF07E9
:101CF000C8F30895A1E21A2EAA1BBB1BFD010DC05B
:101D0000AA1FBB1FEE1FFF1FA217B307E407F507AB
:101D100020F0A21BB30BE40BF50B661F771F881F87
:101D2000991F1A9469F760957095809590959B011D
:101D3000AC01BD01CF010895EE0FFF1F0590F49196
:101D4000E02D0994CF93DF938230910510F482E067
:101D500090E0E0916602F091670220E030E0C0E0A0
:101D6000D0E0309711F14081518148175907C0F0F8
:101D70004817590761F482819381209719F09B835A
:101D80008A832BC0909367028093660226C0211538
:101D9000310519F04217530718F49A01BE01DF010B
:101DA000EF010280F381E02DDCCF2115310509F12F
:101DB000281B390B2430310590F412968D919C919B
:101DC00013976115710521F0FB019383828304C091
:101DD0009093670280936602FD01329644C0FD0134
:101DE000E20FF31F81939193225031092D933C937D
:101DF0003AC02091640230916502232B41F4209176
:101E00002B0130912C0130936502209364022091C4
:101E1000290130912A012115310541F42DB73EB732
:101E200040912D0150912E01241B350BE09164024D
:101E3000F0916502E217F307A0F42E1B3F0B281761
:101E4000390778F0AC014E5F5F4F2417350748F033
:101E50004E0F5F1F509365024093640281939193EC
:101E600002C0E0E0F0E0CF01DF91CF9108950F9341
:101E70001F93CF93DF93009709F48CC0FC01329736
:101E800013821282009166021091670201151105FA
:101E900081F420813181820F931F2091640230915F
:101EA00065022817390779F5F0936502E09364021B
:101EB00071C0D80140E050E0AE17BF0750F4129651
:101EC0002D913C911397AD012115310509F1D901EF
:101ED000F3CF9D01DA013383228360817181860F04
:101EE000971F8217930769F4EC0128813981260F27
:101EF000371F2E5F3F4F318320838A819B819383DD
:101F00008283452B29F4F0936702E093660242C076
:101F10001396FC93EE931297ED01499159919E010E
:101F2000240F351FE217F30771F480819181840F2C
:101F3000951F029611969C938E938281938113969E
:101F40009C938E931297E0E0F0E0D80112968D9169
:101F50009C911397009719F0F8018C01F6CF8D91A1
:101F60009C9198012E5F3F4F820F931F2091640236
:101F7000309165022817390769F4309729F41092D7
:101F800067021092660202C01382128210936502E9
:101F900000936402DF91CF911F910F91089581E02A
:101FA00090E0F8940C94E60FFB01DC010D9000200A
:101FB000E9F7119701900D920020E1F70895FB01D8
:101FC000DC0101900D920020E1F70895F894FFCF15
:101FD0004E6F7468696E67207965740000000000B8
:101FE00000000000000000000000000000000000F1
:101FF0000000000000000000000000680280003FB8
:1020000053484F58000000005F03FB000103A60384
:1020100032031003240300000000A106FB0021048A
:0620200020040D0A00007F
:107E0000112484B714BE81FFF0D085E080938100F7
:107E100082E08093C00088E18093C10086E0809377
:107E2000C20080E18093C4008EE0C9D0259A86E02C
:107E300020E33CEF91E0309385002093840096BBD3
:107E4000B09BFECF1D9AA8958150A9F7CC24DD24C4
:107E500088248394B5E0AB2EA1E19A2EF3E0BF2EE7
:107E6000A2D0813461F49FD0082FAFD0023811F036
:107E7000013811F484E001C083E08DD089C08234E0
:107E800011F484E103C0853419F485E0A6D080C0E4
:107E9000853579F488D0E82EFF2485D0082F10E0AE
:107EA000102F00270E291F29000F111F8ED06801E7
:107EB0006FC0863521F484E090D080E0DECF843638
:107EC00009F040C070D06FD0082F6DD080E0C81688
:107ED00080E7D80618F4F601B7BEE895C0E0D1E017
:107EE00062D089930C17E1F7F0E0CF16F0E7DF06D8
:107EF00018F0F601B7BEE89568D007B600FCFDCFD4
:107F0000A601A0E0B1E02C9130E011968C91119780
:107F100090E0982F8827822B932B1296FA010C0160
:107F200087BEE89511244E5F5F4FF1E0A038BF0790
:107F300051F7F601A7BEE89507B600FCFDCF97BE46
:107F4000E89526C08437B1F42ED02DD0F82E2BD052
:107F50003CD0F601EF2C8F010F5F1F4F84911BD097
:107F6000EA94F801C1F70894C11CD11CFA94CF0C13
:107F7000D11C0EC0853739F428D08EE10CD085E9AC
:107F80000AD08FE07ACF813511F488E018D01DD067
:107F900080E101D065CF982F8091C00085FFFCCF94
:107FA0009093C60008958091C00087FFFCCF809118
:107FB000C00084FD01C0A8958091C6000895E0E648
:107FC000F0E098E1908380830895EDDF803219F02E
:107FD00088E0F5DFFFCF84E1DECF1F93182FE3DFCA
:107FE0001150E9F7F2DF1F91089580E0E8DFEE27F6
:047FF000FF270994CA
:027FFE00040479
:0400000300007E007B
:00000001FF
